{
  "_format": "hh-sol-artifact-1",
  "contractName": "Verify",
  "sourceName": "contracts/Verify.sol",
  "abi": [
    {
      "inputs": [
        {
          "internalType": "address",
          "name": "_address",
          "type": "address"
        }
      ],
      "name": "checkDegreeStatus",
      "outputs": [
        {
          "internalType": "string",
          "name": "",
          "type": "string"
        }
      ],
      "stateMutability": "nonpayable",
      "type": "function"
    },
    {
      "inputs": [
        {
          "internalType": "address",
          "name": "",
          "type": "address"
        }
      ],
      "name": "details",
      "outputs": [
        {
          "internalType": "bytes8",
          "name": "student_id",
          "type": "bytes8"
        },
        {
          "internalType": "string",
          "name": "signature",
          "type": "string"
        },
        {
          "internalType": "bool",
          "name": "exists",
          "type": "bool"
        }
      ],
      "stateMutability": "view",
      "type": "function"
    },
    {
      "inputs": [
        {
          "internalType": "bytes8",
          "name": "_studentid",
          "type": "bytes8"
        },
        {
          "internalType": "string",
          "name": "_signature",
          "type": "string"
        }
      ],
      "name": "setDetails",
      "outputs": [],
      "stateMutability": "nonpayable",
      "type": "function"
    }
  ],
  "bytecode": "0x608060405234801561001057600080fd5b50610c48806100206000396000f3fe608060405234801561001057600080fd5b50600436106100415760003560e01c806324a92f9f146100465780634d0cb03e14610078578063a3acdc9d146100a8575b600080fd5b610060600480360381019061005b919061049b565b6100c4565b60405161006f939291906105ae565b60405180910390f35b610092600480360381019061008d919061049b565b610190565b60405161009f91906105ec565b60405180910390f35b6100c260048036038101906100bd919061076f565b6102d8565b005b60006020528060005260406000206000915090508060000160009054906101000a900460c01b908060010180546100fa906107fa565b80601f0160208091040260200160405190810160405280929190818152602001828054610126906107fa565b80156101735780601f1061014857610100808354040283529160200191610173565b820191906000526020600020905b81548152906001019060200180831161015657829003601f168201915b5050505050908060020160009054906101000a900460ff16905083565b60606000808373ffffffffffffffffffffffffffffffffffffffff1673ffffffffffffffffffffffffffffffffffffffff16815260200190815260200160002060020160009054906101000a900460ff168015610258575060405180602001604052806000815250805190602001206000808473ffffffffffffffffffffffffffffffffffffffff1673ffffffffffffffffffffffffffffffffffffffff16815260200190815260200160002060010160405161024d91906108ce565b604051809103902014155b1561029a576040518060400160405280600881526020017f566572696669656400000000000000000000000000000000000000000000000081525090506102d3565b6040518060400160405280601081526020017f4e6f74207965742076657269666965640000000000000000000000000000000081525090505b919050565b816000803373ffffffffffffffffffffffffffffffffffffffff1673ffffffffffffffffffffffffffffffffffffffff16815260200190815260200160002060000160006101000a81548167ffffffffffffffff021916908360c01c0217905550806000803373ffffffffffffffffffffffffffffffffffffffff1673ffffffffffffffffffffffffffffffffffffffff16815260200190815260200160002060010190816103879190610a9b565b503360016000803373ffffffffffffffffffffffffffffffffffffffff1673ffffffffffffffffffffffffffffffffffffffff1681526020019081526020016000206001016040516103d99190610bfb565b908152602001604051809103902060006101000a81548173ffffffffffffffffffffffffffffffffffffffff021916908373ffffffffffffffffffffffffffffffffffffffff1602179055505050565b6000604051905090565b600080fd5b600080fd5b600073ffffffffffffffffffffffffffffffffffffffff82169050919050565b60006104688261043d565b9050919050565b6104788161045d565b811461048357600080fd5b50565b6000813590506104958161046f565b92915050565b6000602082840312156104b1576104b0610433565b5b60006104bf84828501610486565b91505092915050565b60007fffffffffffffffff00000000000000000000000000000000000000000000000082169050919050565b6104fd816104c8565b82525050565b600081519050919050565b600082825260208201905092915050565b60005b8381101561053d578082015181840152602081019050610522565b60008484015250505050565b6000601f19601f8301169050919050565b600061056582610503565b61056f818561050e565b935061057f81856020860161051f565b61058881610549565b840191505092915050565b60008115159050919050565b6105a881610593565b82525050565b60006060820190506105c360008301866104f4565b81810360208301526105d5818561055a565b90506105e4604083018461059f565b949350505050565b60006020820190508181036000830152610606818461055a565b905092915050565b610617816104c8565b811461062257600080fd5b50565b6000813590506106348161060e565b92915050565b600080fd5b600080fd5b7f4e487b7100000000000000000000000000000000000000000000000000000000600052604160045260246000fd5b61067c82610549565b810181811067ffffffffffffffff8211171561069b5761069a610644565b5b80604052505050565b60006106ae610429565b90506106ba8282610673565b919050565b600067ffffffffffffffff8211156106da576106d9610644565b5b6106e382610549565b9050602081019050919050565b82818337600083830152505050565b600061071261070d846106bf565b6106a4565b90508281526020810184848401111561072e5761072d61063f565b5b6107398482856106f0565b509392505050565b600082601f8301126107565761075561063a565b5b81356107668482602086016106ff565b91505092915050565b6000806040838503121561078657610785610433565b5b600061079485828601610625565b925050602083013567ffffffffffffffff8111156107b5576107b4610438565b5b6107c185828601610741565b9150509250929050565b7f4e487b7100000000000000000000000000000000000000000000000000000000600052602260045260246000fd5b6000600282049050600182168061081257607f821691505b602082108103610825576108246107cb565b5b50919050565b600081905092915050565b60008190508160005260206000209050919050565b60008154610858816107fa565b610862818661082b565b9450600182166000811461087d5760018114610892576108c5565b60ff19831686528115158202860193506108c5565b61089b85610836565b60005b838110156108bd5781548189015260018201915060208101905061089e565b838801955050505b50505092915050565b60006108da828461084b565b915081905092915050565b60008190508160005260206000209050919050565b60006020601f8301049050919050565b600082821b905092915050565b6000600883026109477fffffffffffffffffffffffffffffffffffffffffffffffffffffffffffffffff8261090a565b610951868361090a565b95508019841693508086168417925050509392505050565b6000819050919050565b6000819050919050565b600061099861099361098e84610969565b610973565b610969565b9050919050565b6000819050919050565b6109b28361097d565b6109c66109be8261099f565b848454610917565b825550505050565b600090565b6109db6109ce565b6109e68184846109a9565b505050565b5b81811015610a0a576109ff6000826109d3565b6001810190506109ec565b5050565b601f821115610a4f57610a20816108e5565b610a29846108fa565b81016020851015610a38578190505b610a4c610a44856108fa565b8301826109eb565b50505b505050565b600082821c905092915050565b6000610a7260001984600802610a54565b1980831691505092915050565b6000610a8b8383610a61565b9150826002028217905092915050565b610aa482610503565b67ffffffffffffffff811115610abd57610abc610644565b5b610ac782546107fa565b610ad2828285610a0e565b600060209050601f831160018114610b055760008415610af3578287015190505b610afd8582610a7f565b865550610b65565b601f198416610b13866108e5565b60005b82811015610b3b57848901518255600182019150602085019450602081019050610b16565b86831015610b585784890151610b54601f891682610a61565b8355505b6001600288020188555050505b505050505050565b600081905092915050565b60008154610b85816107fa565b610b8f8186610b6d565b94506001821660008114610baa5760018114610bbf57610bf2565b60ff1983168652811515820286019350610bf2565b610bc8856108e5565b60005b83811015610bea57815481890152600182019150602081019050610bcb565b838801955050505b50505092915050565b6000610c078284610b78565b91508190509291505056fea2646970667358221220e6524ae43548e8ac658292d5ed188aa3ed4a0d36be5b231164413a070d4a0cee64736f6c63430008110033",
  "linkReferences": {},
  "deployedLinkReferences": {}
}